:020000040800F2
:100000005008002029020008AD0E0008E50C000889
:100010009F0D0008D50200088B2200080000000098
:10002000000000000000000000000000D9170008D8
:10003000D90200080000000021150008F11800088E
:10004000430200084302000843020008430200087C
:10005000430200084302000843020008430200086C
:10006000430200084302000843020008430200085C
:10007000430200084302000843020008430200084C
:10008000430200084302000843020008430200083C
:10009000430200084302000843020008430200082C
:1000A000430200084302000843020008430200081C
:1000B000430200084302000843020008430200080C
:1000C00043020008430200084302000843020008FC
:1000D000430200084302000843020008A51F00086D
:1000E00043020008430200084302000843020008DC
:1000F00043020008430200084302000843020008CC
:1001000043020008430200084302000843020008BB
:100110004302000843020008811A0008451B00083A
:10012000430200084302000843020008430200089B
:10013000430200084302000843020008430200088B
:10014000430200084302000843020008430200087B
:10015000430200084302000843020008430200086B
:10016000430200084302000843020008430200085B
:10017000430200084302000843020008430200084B
:10018000430200084302000800F002F800F03CF8C7
:100190000AA090E8000C82448344AAF10107DA45E2
:1001A00001D100F031F8AFF2090EBAE80F0013F0F8
:1001B000010F18BFFB1A43F001031847E42E00009B
:1001C000042F0000103A24BF78C878C1FAD852072B
:1001D00024BF30C830C144BF04680C6070470000C1
:1001E0000023002400250026103A28BF78C1FBD840
:1001F000520728BF30C148BF0B6070471FB502F0DF
:1002000043FC1FBD10B510BD00F031F81146FFF7DB
:10021000F5FF02F0C9F800F04FF803B4FFF7F2FF62
:1002200003BC02F034F80000094880470948004741
:10023000FEE7FEE7FEE7FEE7FEE7FEE7FEE7FEE796
:10024000FEE7FEE704480549054A064B70470000F3
:10025000F51800088901000850020020500800200D
:1002600050040020500400207047704770477546C6
:1002700000F02CF8AE4605006946534620F0070012
:10028000854618B020B5FFF7DDFFBDE820404FF0F0
:1002900000064FF000074FF000084FF0000B21F070
:1002A0000701AC46ACE8C009ACE8C009ACE8C0093D
:1002B000ACE8C0098D46704710B50446AFF3008026
:1002C0002046BDE81040FFF7A8BF00000048704777
:1002D000F001002000BFFEE77047000010B50548A0
:1002E00001F0DFFC04B20021024801F0EAFD2046E3
:1002F00010BD00000004004010B5054801F0D1FC1D
:1003000004B20021024801F0DCFD204610BD0000CF
:100310000008004000B589B00121022001F094F9E5
:100320000121084601F080F902220621274800F049
:10033000F9F802220721254800F0F4F8C0200790C0
:1003400002208DF8200003208DF8210001208DF877
:1003500022008DF8230007A91C4800F09BF84FF6F7
:10036000FF7005900020ADF81000ADF81800ADF852
:10037000120004A9164801F0D3FD00231A460321F8
:10038000134801F06DFC0020ADF80400ADF8060044
:100390000120ADF808000020ADF80A000A20ADF8F1
:1003A0000C0001A90A4801F090FC0420ADF80400FB
:1003B00001A9074801F089FC0020054924310860A3
:1003C0000121034801F040FC09B000BD00000240DB
:1003D0000004004000B589B00121042001F034F987
:1003E0000121022001F020F902220621274800F015
:1003F00099F802220721254800F094F8C0200790C0
:1004000002208DF8200003208DF8210001208DF8B6
:1004100022008DF8230007A91C4800F03BF84FF696
:10042000FF7005900020ADF81000ADF81800ADF891
:10043000120004A9164801F073FD00231A46032197
:10044000134801F00DFC0020ADF80400ADF80600E3
:100450000120ADF808000020ADF80A000A20ADF830
:100460000C0001A90A4801F030FC0420ADF804009A
:1004700001A9074801F029FC002005492431086042
:100480000121034801F0E0FB09B000BD0004024077
:1004900000080040F0B50A4600210023002400BFF8
:1004A0003DE0012505FA01F3156805EA03049C42C5
:1004B00034D105684F000326BE40B5430560157969
:1004C0004E00B5400668354305601579012D02D010
:1004D0001579022D16D185684F000326BE40B5431D
:1004E000856055794E00B54086683543856045681E
:1004F00001268E40B5434560456896798E40B6B278
:1005000035434560C5684F000326BE40B543C5600E
:10051000D5794E00B540C6683543C560491C1029E1
:10052000BFD3F0BDF0B5002300244D07ED0E02FA55
:1005300005F3CE1000F1200555F826504E07F70EB2
:100540000F26BE40B543CF1000F1200646F82750D5
:10055000CE1000F1200555F8265045EA0304CE10D0
:1005600000F1200545F82640F0BD02460020136941
:100570000B400BB1012000E0002070470AB18161FF
:1005800001E00B048361704710B500F087F9B1EE0C
:10059000080A394880ED000A9FED380A80ED010A0B
:1005A0009FED370A80ED020A9FED350A80ED030AC0
:1005B0009FED330A80ED040A9FED310A80ED050AB4
:1005C0009FED300A80ED060A9FED2D0A80ED070AA7
:1005D0009FED2D0A80ED080AB6EE000A2B4880ED4B
:1005E000000A9FED2B0A80ED010A9FED250A80EDA0
:1005F000020A9FED230A80ED030A9FED210A80ED98
:10060000040A9FED1F0A80ED050A9FED220A80ED86
:10061000060A9FED1B0A80ED070A9FED1B0A80ED7D
:10062000080A9FED1D0A1D4880ED000A9FED140A7F
:1006300080ED010A9FED120A80ED020A9FED100A7B
:1006400080ED030A9FED0E0A80ED040A9FED0C0A6F
:1006500080ED050A9FED0A0A80ED060A9FED0A0A61
:1006600080ED070A9FED0E0A80ED080AB0EE000A41
:1006700080ED090A10BD000040010020CDCC4C3DAA
:100680000000000000009643000048436401002081
:10069000295C0F3D0000A04200008C428801002030
:1006A000000048C3F0EE401AF4EEC11AF1EE10FA61
:1006B00002DDB0EE410A7047F4EEE01AF1EE10FAF6
:1006C00002D2B0EE600AF6E7B0EE610AF3E700008E
:1006D00005E0DFED0E0A70EE600AB0EE600ADFEDB5
:1006E0000C0AB4EEE00AF1EE10FAF2DC05E0DFED00
:1006F000070A70EE200AB0EE600ADFED060AB4EEDB
:10070000E00AF1EE10FAF2D3704700000000B443A3
:1007100000003443000034C3024880ED000AC0EDFD
:10072000010A70478801002010B52DED048B504858
:100730000078012812D100F0ABF8B1EE400AF0EEDB
:10074000409AFFF7C5FF4B4880ED020A00F09AF887
:10075000B1EE400A474880ED030A0DE000F098F83A
:10076000F0EE409AFFF7B4FF424880ED020A00F035
:1007700089F8404880ED030A3E48D0ED010A90ED2B
:10078000021A70EEC10AB0EE600AFFF7A1FFB0EEE8
:10079000408A384890ED090AB1EE400AB4EEC80A22
:1007A000F1EE10FA0AD290ED090AB4EEC80AF1EEA1
:1007B00010FA03DD9FED300AB0EE408A2F4890ED2D
:1007C000050A30EE080A80ED050AD0ED061AB0EEF3
:1007D000611AD0ED061AF1EE611AF0EE610AD0ED61
:1007E000051AB0EE610AFFF75DFF244880ED050AA7
:1007F00090ED010AD0ED050A20EE200AD0ED000AA6
:10080000B0EE409A00EE889A80ED048A194890ED87
:10081000030A79EE408A1A4890ED050A30EE280A5C
:1008200080ED050AD0ED061AB0EE611AD0ED061A79
:10083000F1EE611AF0EE610AD0ED051AB0EE610A30
:10084000FFF730FF0E4880ED050A90ED010AD0ED6C
:10085000050A20EE200AD0ED000A00EEA80A05489D
:1008600080ED040A0648C0ED048ABDEC048B10BD7F
:10087000300000208801002000000000400100201E
:1008800064010020014890ED020A7047B001002089
:10089000014890ED020A7047BC0100209FED130A49
:1008A000134880ED000A9FED110A80ED010A9FEDCB
:1008B0000F0A80ED020A9FED0D0A0E4880ED000A36
:1008C0009FED0A0A80ED010A9FED080A80ED020AF9
:1008D0009FED060A084880ED000A9FED040A80EDAE
:1008E000010A9FED020A80ED020A70470000000035
:1008F000B0010020BC010020C801002010B5014655
:100900000020EE4A13781278521CEC4C2270EC4A0C
:10091000D15412785A2A03D0002223461A7010BDEF
:10092000E64A12780B2A00DAF9E7E54A5278AA2A51
:1009300006D0BB2A6BD0CC2A7ED0DD2A7DD147E100
:10094000DF4A1278DE4B5B781A44DD4B9B781A4401
:10095000DB4BDB781A44DA4B1B791A44D84B5B79B2
:100960001A44D74B9B791A44D54BDB791A44D44BA4
:100970001B7A1A44D24B5B7A1A44D0B2D04A927A8C
:10098000824203D00022CD4B1A70C8E7CC4A92783D
:10099000CB4BDB7842EA032212B200EE102AC84A9F
:1009A0001279C74B5B7942EA032212B200EE902A19
:1009B000C34A9279C24BDB7942EA032212B201EEBA
:1009C000102AB8EEC02ADFEDBF2AC2EE221A9FED30
:1009D000BE2A61EE821ABD4AC2ED001AF8EEE01A94
:1009E0009FEDB82AC1EE822ADFEDB71A62EEA11A96
:1009F000C2ED011AF8EEC11A9FEDB22AC1EE822AA9
:100A0000DFEDB11A62EEA11AC2ED021A50E1AC4A52
:100A10001278AB4B5B781A44A94B9B781A44A84BCD
:100A2000DB781A44A64B1B791A44A54B5B791A4410
:100A3000A34B9B791A4401E053E035E1A04BDB79ED
:100A40001A449F4B1B7A1A449D4B5B7A1A44D0B2CE
:100A50009B4A927A824203D00022984B1A705EE73A
:100A6000974A9278964BDB7842EA032212B200EE64
:100A7000902A934A1279924B5B7942EA032212B28E
:100A800000EE102A8E4A92798D4BDB7942EA0322DE
:100A900012B201EE102AF8EEE01A9FED8A2AC1EE9A
:100AA000822ADFED8B1A62EEA11A8A4AC2ED001A81
:100AB000B8EEC02ADFED832AC2EE221A9FED842A07
:100AC00061EE821AC2ED011AB8EEC12ADFED7D2A6D
:100AD000C2EE221A9FED7E2A61EE821AC2ED021A40
:100AE000E6E0774A1278764B5B781A44744B9B7831
:100AF0001A44734BDB781A44714B1B791A44704BC0
:100B00005B791A446E4B9B791A446D4BDB791A441E
:100B10006B4B1B7A1A446A4B5B7A1A44D0B2684A10
:100B2000927A824203D00022644B1A70F7E6644A3C
:100B30009278634BDB7842EA032212B201EE102A6C
:100B40005F4A12795E4B5B7942EA032212B200EEF1
:100B5000102A5B4A92795A4BDB7942EA032212B29D
:100B600000EE902A9FED5C2AF0EE421AB8EEC12A00
:100B7000DFED542A82EE223AB3EE002A23EE022A57
:100B8000DFED552A22EE222A544A82ED002AF8EEA1
:100B9000C02A9FED4C3A82EE832AF3EE002A22EE21
:100BA000222ADFED4D2A22EE222A82ED012AB8EE1A
:100BB000E02ADFED442A82EE223AB3EE002A23EE49
:100BC000022ADFED452A22EE222A82ED022A6FE078
:100BD0003B4A12783A4B5B781A44394B9B781A445B
:100BE000374BDB781A44364B1B791A44344B5B790C
:100BF0001A44334B9B791A44314BDB791A44304BFE
:100C00001B7A1A442E4B5B7A1A44D0B22C4A927A41
:100C1000824203D00022294B1A7080E6284A92783B
:100C2000274BDB7842EA032212B200EE102A244A54
:100C30001279234B5B7942EA032212B200EE902A2A
:100C40001F4A92791E4BDB7942EA032212B201EE6F
:100C5000102A1B4A127A1A4B5B7A42EA032212B21A
:100C600001EE902AB8EEC02ADFED162A82EE223A73
:100C70001B4A82ED003AB8EEE02ADFED122A82EE3E
:100C8000223A82ED013AB8EEC12ADFED0E2A82EE59
:100C9000223A82ED023AB8EEE12ADFED0A2A82EE2C
:100CA000223A82ED033A03E00022044B1A7036E642
:100CB00000BF0022014B1A7000BF30E64500002043
:100CC000E4010020000000470000FA44B0010020C9
:100CD00000003443BC010020CDCC1C41C8010020E1
:100CE000D401002000BFFEE7142000BF011EA0F1C8
:100CF000010290B2FAD17047D0ED070AC0ED080AA0
:100D0000D0ED060AC0ED070AD0ED000A90ED011AF9
:100D100070EEC10AC0ED060AD0ED060A90ED071A82
:100D200070EEC10A90ED031A60EE810A90ED041A8C
:100D3000D0ED061A41EE210A90ED061AD0ED071A01
:100D4000B0EE002A02EE611AD0ED081A31EE211A37
:100D5000D0ED051A41EE810AB0EE600AD0ED020A2C
:100D600070EE800AC0ED020AD0ED020A90ED0A1A78
:100D7000F4EEC10AF1EE10FA03DDD0ED0A0AC0ED7F
:100D8000020AD0ED020A90ED0B1AF4EEC10AF1EE60
:100D900010FA03D2D0ED0B0AC0ED020A704700BF73
:100DA000FEE7000010B52DED028BB0EE408AB5EEE7
:100DB000C08AF1EE10FA0FDB012251030F48FFF752
:100DC000DDFB00224FF480510C48FFF7D7FBB0EE5B
:100DD000480A00F075FB0EE000224FF4005107486E
:100DE000FFF7CCFB012211030448FFF7C7FBB1EE6C
:100DF000480A00F065FBBDEC028B10BD00100240FC
:100E000010B52DED028BB0EE408AB5EEC08AF1EE42
:100E100010FA0FDB0122D1030F48FFF7AFFB0022CE
:100E20004FF480410C48FFF7A9FBB0EE480A00F0F0
:100E30005FFB0EE000224FF400410748FFF79EFBE6
:100E4000012291030448FFF799FBB1EE480A00F034
:100E50004FFBBDEC028B10BD001002401CB5012100
:100E6000102000F0E1FB4FF28050009001208DF83F
:100E7000040000208DF8060002208DF805000020F7
:100E80008DF8070069460748FFF704FB012102209F
:100E900000F0CAFB0220009069460348FFF7FAFA07
:100EA0001CBD00000010024000040240704700001A
:100EB00070B5002100230F22C4781CB3174C24689E
:100EC00004F4E064C4F5E064C4F30721C1F1040450
:100ED000E3B20A4144789C40E1B284781440214353
:100EE0000C07210E0E4C05786155047804F01F059F
:100EF0000124AC4005786D11AD0005F1E025C5F881
:100F0000004109E0047804F01F050124AC40054DC0
:100F10000678761145F8264070BD00000CED00E023
:100F200000E400E080E100E070B500240EE0002164
:100F3000204600F006F9002504E0002000F0C5F985
:100F4000681CC5B2802DF8DB601CC4B2082CEEDB37
:100F500070BD00001CB50121022000F065FB4FF4BC
:100F60004070009001208DF804008DF806000220EA
:100F70008DF8050001208DF8070069460648FFF747
:100F800089FA012211020448FFF7F8FA01225102FE
:100F90000148FFF7F3FA1CBD0004024070B5054696
:100FA00000241FE080202041284008B1012000E0FB
:100FB000002002464FF400711248FFF7DFFAFFF7F6
:100FC00093FE012211020F48FFF7D8FAFFF78CFEBB
:100FD00000224FF480710B48FFF7D0FAFFF784FE30
:100FE000601CC4B2082CDDDB012211020548FFF7AA
:100FF000C5FAFFF779FE00224FF480710148FFF730
:10100000BDFA70BD0004024010B5012251020E4825
:10101000FFF7B4FAFFF768FE012211020A48FFF752
:10102000ADFAFFF761FE00224FF400710648FFF7AA
:10103000A5FAFFF759FE00224FF480710248FFF72E
:101040009DFAFFF751FE10BD0004024010B50022CA
:101050004FF400710948FFF791FAFFF745FE0122AE
:1010600011020648FFF78AFAFFF73EFE01225102FD
:101070000248FFF783FAFFF737FE10BD0004024075
:1010800070B5002406E0002500E06D1CB5F57A7F00
:10109000FBD3641CB4F57A7FF5D3FFF75BFFAE207A
:1010A00000F003F9D52000F000F9802000F0FDF8F1
:1010B000A82000F0FAF83F2000F0F7F8D32000F065
:1010C000F4F8002000F0F1F8402000F0EEF8A12044
:1010D00000F0EBF8C82000F0E8F8DA2000F0E5F8BE
:1010E000122000F0E2F8812000F0DFF8CF2000F0BD
:1010F000DCF8D92000F0D9F8F12000F0D6F8DB2098
:1011000000F0D3F8302000F0D0F8A42000F0CDF8A3
:10111000A62000F0CAF88D2000F0C7F8142000F0D7
:10112000C4F8AF2000F0C1F8FFF7FEFE70BD10B5A7
:101130000246012000E050430B1EA1F10101FAD14B
:1011400010BD70B505460C4645F0B00000F0ADF896
:10115000102141EA141000F0A8F804F00F0000F08C
:10116000A4F870BD2DE9F04105460E461746721EE3
:10117000D206110E6A1E5206100EFFF7E2FF00247F
:1011800009E0A7F12001134A02EB0111085D00F00C
:101190009CF8601CC4B2082CF3DB721ED206110E40
:1011A0006A1E012303EB4202D0B2FFF7CAFF0024FC
:1011B0000BE0A7F12001074A02EB011204F108013C
:1011C000505C00F082F8601CC4B2082CF1DBBDE872
:1011D000F0810000922A00082DE9F04780460E4673
:1011E00017461D46002415E0281B411E0A20FFF764
:1011F0009EFFB7FBF0F00A21B0FBF1F201FB1200F9
:1012000000F130093019C1B24A464046FFF7AAFF43
:10121000601CC4B2AC42E7DBBDE8F0872DE9F047C3
:101220008146884615461E46002D06DB2B22414688
:101230004846FFF797FF2F4605E02D2241464846D6
:10124000FFF790FF6F42002417E0301B411E0A2079
:10125000FFF76DFFB7FBF0F00A21B0FBF1F201FBE5
:10126000120000F1300A08EB0400401CC1B25246E3
:101270004846FFF777FF601CC4B2B442E5DBBDE827
:10128000F0872DE9F04107460E461546002407E099
:101290002A5D3019C1B23846FFF764FF601CC4B242
:1012A000285D0028F4D1BDE8F08110B50446FFF7B1
:1012B000ABFE7820FFF772FE0020FFF76FFE20469E
:1012C000FFF76CFEFFF7C2FE10BD10B50446FFF736
:1012D0009BFE7820FFF762FE4020FFF75FFE20466E
:1012E000FFF75CFEFFF7B2FE10BD00009FED2F0A76
:1012F0002F4880ED030A9FED2F0A80ED040A9FED31
:101300002E0A80ED050A9FED2D0A80ED090A90ED69
:10131000090A80ED000A9FED2A0A80ED0A0A9FED76
:10132000290A80ED0B0A9FED280A284880ED030A60
:101330009FED270A80ED040A9FED260A80ED050A3D
:101340009FED1E0A80ED090A90ED090A80ED000A62
:101350009FED1B0A80ED0A0A9FED1A0A80ED0B0A29
:10136000B2EE000A1C4880ED030A9FED1C0A80EDD6
:10137000040AB7EE080A80ED050A9FED0F0A80ED1A
:10138000000A9FED0D0A80ED020A9FED150A80ED1F
:101390000A0A9FED140A80ED0B0A9FED130A80EDF7
:1013A0000C0A9FED120A80ED0D0A7047C3F5A83FA5
:1013B000E00000204260E53D0000000000008C429B
:1013C0000000C8430000C8C36210A83F10010020FD
:1013D000AE47E13D6F12833A480000208FC2F53CD2
:1013E0000000C8420000C8C200004843000048C3D3
:1013F00000B58BB00121402000F026F90121022028
:1014000000F012F902208DF8280000208DF82A0043
:101410004FF44040099001208DF82B0003208DF8F7
:10142000290009A92448FFF735F809220E2122488E
:10143000FFF778F809220F211F48FFF773F81F48BC
:1014400000F083FC0020ADF82000ADF81A0040F257
:10145000CF7007905320ADF8180000208DF82200BF
:1014600006A9164800F05CFD01A800F01CFD6020F4
:10147000ADF804000020ADF810000120ADF8060022
:101480000020039001A90D4800F066FC01A90B485B
:1014900000F0AAFC0821094800F09CFC082107483C
:1014A00000F0F4FC0121054800F0BCFB01210348D9
:1014B00000F0CAFB0BB000BD000402400018004061
:1014C00010B52DED028BB0EE408AB0EE080A28EE82
:1014D000000ABCEEC00A10EE100A84B2214603488E
:1014E00000F0EBFCBDEC028B10BD000000180040CA
:1014F00010B52DED028BB0EE408AB0EE080A28EE52
:10150000000ABCEEC00A10EE100A84B2214603485D
:1015100000F0D5FCBDEC028B10BD000000180040AF
:101520007047000090ED000AD0ED010A30EE600A2D
:1015300080ED060A90ED090AD0ED060A30EE200A89
:1015400080ED090A90ED060AF0EE080AB4EEE00A12
:10155000F1EE10FA11D290ED060AF8EE080AB4EE98
:10156000E00AF1EE10FA08DD90ED090AD0ED060A66
:1015700030EE200A80ED090A03E09FED2A0A80ED93
:10158000090A90ED090AD0ED0C0AB4EEE00AF1EE7A
:1015900010FA03DD90ED0C0A80ED090A90ED090ABE
:1015A000D0ED0D0AB4EEE00AF1EE10FA03D290EDA0
:1015B0000D0A80ED090A90ED030AD0ED060A20EE2F
:1015C000200AD0ED040A90ED091A00EE810AD0ED50
:1015D000060A90ED071A70EEC10A90ED051A01EEA9
:1015E000200A80ED020A90ED060A80ED070A90EDD0
:1015F000020AD0ED0A0AB4EEE00AF1EE10FA03DDB9
:1016000090ED0A0A80ED020A90ED020AD0ED0B0A75
:10161000B4EEE00AF1EE10FA03D290ED0B0A80ED81
:10162000020A70470000000029B1064A126802430E
:10163000044B1A6004E0034A12688243014B1A60AB
:10164000704700003038024029B1064A1268024350
:10165000044B1A6004E0034A12688243014B1A608B
:10166000704700004038024029B1064A1268024320
:10167000044B1A6004E0034A12688243014B1A606B
:10168000704700002038024029B1064A1268024320
:10169000044B1A6004E0034A12688243014B1A604B
:1016A0007047000024380240F0B5002100220024D9
:1016B000022500260223324F3F6807F00C0121B1BA
:1016C000042905D0082937D105E02E4F076036E000
:1016D0002D4F076033E02A4F3F1F3F68C7F3805606
:1016E000274F3F1F3F6807F03F036EB1264FB7FB00
:1016F000F3F7DFF88CC0ACF1040CDCF800C0CCF3DD
:10170000881C07FB0CF40CE01E4FB7FBF3F7DFF867
:1017100070C0ACF1040CDCF800C0CCF3881C07FBF3
:101720000CF4174F3F1F3F68C7F301477F1C7D0034
:10173000B4FBF5F7076002E0124F076000BF00BF7F
:101740000F4F3F6807F0F0010909104F7A5C0768F6
:10175000D74047600A4F3F6807F4E051890A0B4FB2
:101760007A5C4768D7408760054F3F6807F460415F
:10177000490B064F7A5C4768D740C760F0BD000050
:10178000083802400024F40000127A000000002013
:101790001CB501210820FFF747FF6F2000900020B3
:1017A0008DF8040002208DF8050001208DF8070057
:1017B00069460748FEF76EFE01210846FFF734FF31
:1017C0004FF48070009069460248FEF763FE1CBD2E
:1017D000000C024000000240704700000CB50020E1
:1017E000019000903448006840F48030324908602D
:1017F00000BF3148006800F4003000900198401CA0
:101800000190009818B90198B0F5A04FF1D12A487D
:10181000006800F4003010B10120009001E00020C9
:1018200000900098012846D123484030006840F0DD
:1018300080502149403108602048006840F4404011
:101840001E4908601C48083000681B4908310860C0
:101850000846006840F4004008600846006840F40C
:10186000A05008601648091F0860081F006840F073
:101870008070091F086000BF0F48006800F000700A
:101880000028F9D040F205700E4908600A48083077
:10189000006820F003000849083108600846006825
:1018A00040F00200086000BF03480830006800F004
:1018B0000C000828F8D10CBD003802400070004030
:1018C00008544007003C0240042808D14FF0E021B2
:1018D000096941F004014FF0E022116107E04FF087
:1018E000E021096921F004014FF0E0221161704705
:1018F0007047000010B51548006840F470001349A7
:1019000008601348006840F0010011490860002099
:101910000F49083108600E4800680E4908400C491C
:1019200008600D48091D0860081F006820F4802029
:10193000091F0860002006490C310860FFF74EFFC0
:101940004FF0006001498039086010BD88ED00E06B
:1019500000380240FFFFF6FE10300024F0B50C46C0
:10196000154600210022068C4FF6FE773E40068485
:10197000018B028C4FF60C7631407E1C06EA031672
:101980002E4331434FF6F576324044F001063243A0
:1019900001830284F0BDF0B50C46154600210022FB
:1019A0000026078C4FF6EF7C07EA0C070784018BB3
:1019B000028C4FF6FF7707EA041640F6FF473940DE
:1019C0004FF6FF7707EA033739434FF6FF7707EA09
:1019D000052739434FF65F773A4046F010073A4300
:1019E00001830284F0BDF0B50C46154600210022AB
:1019F0000026078C4FF6FF6C07EA0C070784818BE3
:101A0000028C4FF6FF7707EA04264FF60C77394031
:101A10004FF6FF7707EA03172F4339434FF2FF577B
:101A20003A4046F480773A4381830284F0BDF0B5B2
:101A30000C461546002100220026078C4EF6FF7C3E
:101A400007EA0C070784818B028C4FF6FF7707EAC1
:101A5000043640F6FF4739404FF6FF7707EA05277F
:101A600039434FF6FF7707EA0337394345F6FF77E7
:101A70003A4046F480573A4381830284F0BD000027
:101A800010B50121284800F00FF900284BD0274855
:101A9000006832283EDB2648007801280CD1254812
:101AA0000068401C2349086008460068322803D3B8
:101AB000002008601E490870FEF710FC404200EE4E
:101AC000100AB8EEC00ADFED1C0A20EE200A1B48FF
:101AD00080ED010AFFF710F91848D0ED020AB0EEC8
:101AE000600AFFF75FF9FEF707FC00EE100AB8EE98
:101AF000C00ADFED110A20EE200A114880ED010A2C
:101B0000FFF7FAF80E48D0ED020AB0EE600AFFF7D0
:101B100077F904E005480068401C04490860012189
:101B2000014800F08EF810BD001000402800002091
:101B30001D0000202C000020D8FE3440E0000020D2
:101B40001001002010B501212D4800F0ADF800284B
:101B500054D02C48006832284CDB2B480078F8B968
:101B600000F014FE2948FFF7DDFC294A92ED090A2E
:101B7000264AD2ED020A30EE200ABDEEC00A10EE6F
:101B8000101A244A92ED090A204AD2ED020A30EED8
:101B9000600ABDEEC00A10EE100A00F00FFD29E049
:101BA00019480078012825D11B48D0ED000A9FED87
:101BB0001B0AFEF7B1FDFEF7B7FD194A92ED000AC8
:101BC000D2ED040A30EE200ABDEEC00A10EE101A63
:101BD00092ED000AD2ED040A30EE600ABDEEC00AB2
:101BE00010EE100A00F0EAFC00F06AFB10B10020D1
:101BF000054908700121024800F023F810BD0000DB
:101C000000140040280000201000002048000020A0
:101C100010010020E00000201800002000008C428D
:101C20008801002021B1028842F08002028004E095
:101C300002884FF67F731A4002807047CA430282BF
:101C40007047CA430282704721B1028842F0010204
:101C5000028004E002884FF6FE731A40028070474B
:101C6000F0B50C4615461E460021002200230189CE
:101C7000028B038C4FF6F877394021434FF6FC472F
:101C80003A4040F201173A434FF6DD773B404FF6BA
:101C9000FF7707EA06172F433B4301810283038442
:101CA000F0BD0146486A704730B502460020002367
:101CB0000024158A05EA0103958905EA010413B198
:101CC0000CB1012000E0002030BD70B505460C4687
:101CD000208850B92389A28861882846FFF73EFEF4
:101CE000E188284600F0EFF825E0208804280AD192
:101CF0002389A28861882846FFF74DFEE18828469F
:101D000000F0EAF817E0208808280AD12389A28881
:101D100061882846FFF767FEE188284600F0E9F869
:101D200009E02389A28861882846FFF780FEE188C0
:101D3000284600F0E7F870BD1AB183890B43838110
:101D400002E083898B438381704701894FF6F872E3
:101D5000114001817047000070B50024002200236B
:101D6000058C4FF6FE7635400584028C8388048B03
:101D70004FF68F752C40B51E2C400D882C43751ED8
:101D80002A408D892A434D882A43104DA84202D00B
:101D90000F4DA84213D14FF6F7752A40CD892A433B
:101DA0004FF6FB752A408D882A434FF6FF652B407E
:101DB0004FF6FF552B400D8A2B434D8A2B438380D2
:101DC00004838D684563028470BD000000000140FB
:101DD000000401400A460021018B4FF6F7731940B9
:101DE000114301837047000070B5002400220023D6
:101DF000058C4FF6EF7635400584028C8388048B82
:101E000048F6FF752C404FF6FF452C400D884FF6E5
:101E1000FF7606EA05252C434FF6DF752A408D89AB
:101E200006EA05152A434D8806EA05152A43154D8D
:101E3000A84202D0144DA8421DD14FF67F752A400A
:101E4000CD894FF6FF7606EA05152A434FF6BF7592
:101E50002A408D8806EA05152A434FF6FF352B40A8
:101E60004FF2FF752B400D8A06EA85052B434D8AFC
:101E700006EA85052B43838004838D68856302848D
:101E800070BD000000000140000401400A4600212E
:101E9000018B4FF2FF7319404FF6FF7303EA0223E1
:101EA0001943018370470021018041808180816056
:101EB0008181C181018241827047416370478163A2
:101EC000704741627047028B4FF6F3731A400283EA
:101ED000028B0A4302837047028B4FF2FF331A4092
:101EE0000283028B4FF6FF7303EA01231A43028336
:101EF0007047828B4FF6F3731A408283828B0A43BA
:101F000082837047828B4FF2FF331A408283828B29
:101F10004FF6FF7303EA01231A43828370470000E0
:101F200000220288184B98420ED0184B98420BD0D2
:101F3000B0F1804F08D0164B984205D0154B98420F
:101F400002D0154B984204D14FF68F731A404B883C
:101F50001A43124B984207D0114B984204D04FF6C7
:101F6000FF431A400B891A4302804B68C3620B88F7
:101F70000385054B984202D0044B984201D18B7ADD
:101F80000386012383827047000001400004014062
:101F90000004004000080040000C00400010004019
:101FA0000014004010B540F22551094800F0AEF889
:101FB00001280CD1064800F063F9C4B22046FEF7B0
:101FC0009DFC40F22551024800F00DF800BF10BD05
:101FD0000048004001F40072B2F5007F00D100BF5C
:101FE000CA430280704710B50022002340F66A14ED
:101FF000A14200D100BF0A1201249440A3B2DC43E5
:10200000048010BD21B1828942F40052828104E033
:1020100082894DF6FF731A408281704710B50446DD
:102020003248844208D101211020FFF72DFB002106
:102030001020FFF729FB57E02D48844209D10121E8
:102040004804FFF711FB00214FF40030FFF70CFBB1
:102050004AE02848844209D101218804FFF704FBA3
:1020600000214FF48020FFF7FFFA3DE02248844230
:1020700009D10121C804FFF7F7FA00214FF400202D
:10208000FFF7F2FA30E01D48844209D1012108052A
:10209000FFF7EAFA00214FF48010FFF7E5FA23E09A
:1020A0001748844208D101212020FFF7EDFA0021D2
:1020B0002020FFF7E9FA17E01248844209D10121F4
:1020C0008807FFF7D1FA00214FF08040FFF7CCFAE4
:1020D0000AE00D48844207D101214005FFF7C4FA08
:1020E00000216005FFF7C0FA10BD0000001001409C
:1020F0000044004000480040004C004000500040B8
:102100000014014000780040007C004070B5024699
:10211000002400230025002040F66A16B14200D1B9
:1021200000BFC1F3421501F01F03012606FA03F3B5
:10213000012D02D19689334006E0022D02D1168A84
:10214000334001E0968A33400C12012606FA04F46B
:102150001688344013B10CB1012000E0002070BD9E
:10216000F0B50346002400260025002040F66A173B
:10217000B94200D100BF1846C1F3421401F01F0656
:10218000012707FA06F5012C01D10C3004E0022CDE
:1021900001D1103000E014301AB107682F430760F6
:1021A00002E00768AF430760F0BD00002DE9FF477C
:1021B00005460E460024A14600BFA046B08900B1E6
:1021C00000BF2C8A24F44054F08804432C82AC894C
:1021D00041F20C608443B088318908437189084317
:1021E0000443AC81AC8A24F44074B0890443AC82CB
:1021F0006846FFF759FA2048854202D01F488542B9
:1022000002D1DDF80C9001E0DDF80890A88900F417
:10221000004040B109EBC90000EB091031684900EA
:10222000B0FBF1F707E009EBC90000EB09103168DA
:102230008900B0FBF1F76420B7FBF0F0040120093E
:10224000642101FB1078A88900F4004040B13220DD
:1022500000EBC800B0FBF1F000F00700044308E019
:10226000322000EB08106421B0FBF1F000F00F0009
:1022700004432C81BDE8FF87001001400014014099
:1022800001468888C0F30800704700BFFEE700BF22
:102290007047000010B54FF0006008490860042046
:1022A000FFF712FB4FF6FF704FF0E0214861084640
:1022B000006940F00100086110BD000008ED00E079
:1022C00010B5012406E0E0B200F008F8012800D1C2
:1022D00010BD641C072CF6DD0020F9E770B504463C
:1022E0000025082C4CD2DFE804F04B040F19232DF5
:1022F00037414FF480712948FEF737F9012800D1A2
:1023000000E0002005463DE001212548FEF72DF9BB
:10231000012800D100E00020054633E002212048DA
:10232000FEF723F9012800D100E00020054629E04E
:1023300004211B48FEF719F9012800D100E0002014
:1023400005461FE008211648FEF70FF9012800D1C5
:1023500000E00020054615E020211148FEF705F9B0
:10236000012800D100E0002005460BE040210C4888
:10237000FEF7FBF8012800D100E00020054601E04F
:10238000002500BF00BF0748007820B90DB9012023
:1023900000E000200546284670BD00000000024015
:1023A000000C0240240000202DED028BFFF772FF8D
:1023B000FEF766FEFFF7ECF9FFF71AF8FDF7AAFF44
:1023C000FEF708F8FEF74AFDFEF790FF00F06EF901
:1023D00000F0A4F94FF4E13000F0F0FAFEF75EFAF5
:1023E000FEF7D2F8FEF7A0FD5EA201210846FEF737
:1023F00048FF60A201210220FEF743FF61A20121F4
:102400000320FEF73EFF61A201210420FEF739FF01
:10241000FEF73EFA5F4880ED000AA2E09FED5E0AFB
:10242000F0EE408A01260BE0F0B2FFF757FF0128DB
:1024300005D1B7EE000A38EE800AF0EE408A761C2D
:10244000072EF1DD01235548027803211846FEF7D7
:10245000C3FE02235248027806210120FEF7BCFE8B
:102460000123504802780A211846FEF7B5FE0123E1
:102470004D4802780E211846FEF7AEFE02234B4867
:10248000042102681846FEF7A7FE0123BCEEE80A05
:1024900010EE102A08210220FEF79EFE444890ED1F
:1024A000010ABDEEC00A10EE102A03230C210220FF
:1024B000FEF7B4FEFEF7ECF9B0EE408A0423BDEE61
:1024C000C80A10EE102A05210320FEF7A7FEBDEE74
:1024D000C80AB8EEC00A38EE400AF2EE040A20EE4E
:1024E000200ABDEEC00A10EE104A002C00DA644249
:1024F00030A20A210320FEF7C4FE012322460B214D
:102500000320FEF769FE04232B4890ED000ABDEE80
:10251000C00A10EE102A05211846FEF77FFE264855
:10252000D0ED000A90ED000ABDEEC00AB8EEC00A78
:1025300030EEC00AF2EE040A20EE200ABDEEC00A18
:1025400010EE105A002D00DA6D421AA20A21042062
:10255000FEF797FE01232A460B210420FEF73CFEDE
:1025600000BF5BE74D3A20204C3A2020463A20201D
:102570004D4C3A0043743A202020533A2020204109
:102580003A0000005961773A000000005467743A3D
:1025900000000000140000200000000010000020D7
:1025A0001C0000201D000020110000202C00002035
:1025B000480000202E0000001800002070B50446DE
:1025C0000D46C82C01DDC82404E014F11E0F01DA09
:1025D0006FF01D0400EE104AB8EEC00A2F4880EDDF
:1025E000000A002C0ADD012202212D48FDF7C6FF5A
:1025F000002280212B48FDF7C1FF16E0002C0ADAEB
:10260000002202212648FDF7B9FF0122802125483A
:10261000FDF7B4FF09E0002202212148FDF7AEFFDB
:10262000002280211F48FDF7A9FFC82D01DDC82524
:1026300004E015F11E0F01DA6FF01D0500EE105ACF
:10264000B8EEC00A184880ED000A002D0BDD01220B
:1026500011021448FDF792FF00224FF480611148E7
:10266000FDF78CFF19E0002D0BDA00224FF480718A
:102670000C48FDF783FF012291020A48FDF77EFF17
:102680000BE000224FF480710648FDF777FF00222F
:102690004FF480610348FDF771FF70BDE00000203A
:1026A0000004024000100240100100201FB501216B
:1026B0001020FEF7C9FF1848FFF747FB0020ADF8D0
:1026C0000C00ADF8060044F61F6002905320ADF8F0
:1026D000040000208DF80E0001A90F48FFF720FC30
:1026E00001210D48FFF7AAFA012211460A48FFF717
:1026F00023FB01210848FFF7A7FA36208DF80000D8
:1027000001208DF801008DF802008DF80300684665
:10271000FEF7CEFB1FBD0000001000401FB50121D9
:102720002020FEF791FF1848FFF70FFB0020ADF8BF
:102730000C00ADF8060049F63F4002905320ADF87A
:10274000040000208DF80E0001A90F48FFF7E8FBF8
:1027500001210D48FFF772FA012211460A48FFF7DE
:10276000EBFA01210848FFF76FFA37208DF80000D7
:1027700002208DF801008DF8020001208DF8030081
:102780006846FEF795FB1FBD0014004010B52DED07
:10279000028B9FED800AB0EE408A9FED7E0AF0EE3C
:1027A000408A002415E0611CC8B2FFF797FD01289C
:1027B0000ED1B7EE000A38EE000AB0EE408A764835
:1027C00000EB840090ED000A30EE280AF0EE408A1B
:1027D000641C072CE7DBB5EEC08AF1EE10FA4EDD83
:1027E000B0EE080AB4EEC08AF1EE10FA47D288EED5
:1027F000880A6A4880ED010A002069490870694822
:102800000078002828D16848007801280DD10846B2
:10281000007850B965480078401C64490870002071
:102820006149087001205F4908706049087800EB31
:10283000D0714910A0EB410101290ED15C48D0EDC7
:10284000000A9FED5C1A70EE810AB0EE600AFDF797
:102850003FFF594880ED000A98E05449087800EBA2
:10286000D0714910A0EB4101002907D1504890EDEB
:10287000000AFDF72DFF504880ED000A86E0B0EE1B
:10288000080AB4EEC08AF1EE10FA4FDB002044498A
:10289000087044480078C0BB4348007801280DD137
:1028A0000846007850B941480078401C3F490870FC
:1028B00000203D49087001203A4908703B490878DA
:1028C00000EBD0714910A0EB410101290DD138482E
:1028D000D0ED000A9FED371A70EE810AB0EE600A63
:1028E000FDF7F6FE344880ED000A3049087800EB29
:1028F000D0714910A0EB410139B92D4890ED000A83
:10290000FDF7E6FE2C4880ED000AF5EEC08AF1EEF8
:1029100010FA05DDB2EE040A204880ED010A35E028
:10292000BAEE040A1D4880ED010A2FE01D48007828
:1029300028B901201A4908701B49087026E0194877
:102940000078012822D1154890ED010AF2EE000A24
:10295000B4EEE00AF1EE10FA04DBB2EE040A80ED08
:10296000010A13E00D4890ED010AFAEE000AB4EEF8
:10297000E00AF1EE10FA04D8BAEE040A80ED010A7A
:1029800004E0064890ED010A80ED010ABDEC028BDF
:1029900010BD000000000000843000084800002046
:1029A000100000201D000020110000201C0000204D
:1029B00014000020000034431800002010B588B037
:1029C000044601210820FEF72FFE01218804FEF7AE
:1029D0003BFE072208212A48FDF7A4FD0722092112
:1029E0002748FDF79FFD4FF48070069002208DF878
:1029F0001C0003208DF81D0000208DF81E00012012
:102A00008DF81F0006A91E48FDF744FD4FF4007025
:102A1000069006A91A48FDF73DFD1A48FFF7FEFA91
:102A200002940020ADF80C00ADF80E00ADF81000D7
:102A30000C20ADF812000020ADF8140002A91148D6
:102A4000FFF7B4FB20210F48FFF7C4FA012240F240
:102A500025510C48FFF784FB01210A48FFF7D2FA01
:102A600027208DF8040000208DF8050001208DF846
:102A700006008DF8070001A8FEF71AFA08B010BD8D
:102A8000000C0240004800404FF04070E1EE100A98
:102A9000704700000000000000000000000000007F
:102AA0000000000000F800000000000000333000CB
:102AB000000000100C06100C0600000000000000D2
:102AC000000040C07840C0784000043F04043F0448
:102AD0000400007088FC08300000001820FF211E50
:102AE0000000F008F000E018000000211C031E2187
:102AF0001E0000F00888700000001E212324192702
:102B0000211010160E000000000000000000000060
:102B10000000000000E01804020000000007182078
:102B2000400000020418E0000000004020180700E8
:102B30000000404080F0804040000202010F01028E
:102B40000200000000F0000000000101011F01016F
:102B50000100000000000000000080B070000000D4
:102B60000000000000000000000000010101010160
:102B700001010000000000000000003030000000F3
:102B800000000000000080601804006018060100CA
:102B9000000000E010080810E000000F10202010D6
:102BA0000F00001010F8000000000020203F20203F
:102BB00000000070080808887000003028242221D6
:102BC000300000300888884830000018202020118C
:102BD0000E000000C02010F8000000070424243F6D
:102BE000240000F808888808080000192120201116
:102BF0000E0000E0108888180000000F112020113E
:102C00000E0000380808C83808000000003F000027
:102C100000000070880808887000001C2221212212
:102C20001C0000E010080810E00000003122221112
:102C30000F00000000C0C0000000000000303000A5
:102C40000000000000800000000000008060000024
:102C5000000000008040201008000001020408105D
:102C6000200040404040404040000404040404046C
:102C7000040000081020408000000020100804021A
:102C80000100007048080808F0000000003036011C
:102C90000000C030C828E810E000071827242314DB
:102CA0000B000000C038E0000000203C2302022797
:102CB000382008F8888888700000203F20202011E4
:102CC0000E00C0300808080838000718202020101F
:102CD000080008F808080810E000203F2020201015
:102CE0000F0008F88888E8081000203F20202320E3
:102CF000180008F88888E8081000203F200003002A
:102D00000000C03008080838000007182020221EE4
:102D1000020008F808000008F808203F21010121FE
:102D20003F20000808F8080800000020203F20206D
:102D3000000000000808F8080800C08080807F00BC
:102D4000000008F888C028180800203F2001263815
:102D5000200008F8080000000000203F202020206C
:102D6000300008F8F800F8F80800203F003F003F66
:102D7000200008F830C00008F808203F200007189D
:102D80003F00E01008080810E0000F10202020107D
:102D90000F0008F808080808F000203F2101010191
:102DA0000000E01008080810E0000F182424385034
:102DB0004F0008F8888888887000203F2000030CA6
:102DC00030200070880808083800003820212122AF
:102DD0001C00180808F8080818000000203F200010
:102DE000000008F808000008F808001F2020202034
:102DF0001F000878880000C83808000007380E0156
:102E00000000F80800F80008F800033C0700073C41
:102E10000300081868808068180820302C03032CF1
:102E200030200838C800C83808000000203F2000C3
:102E3000000010080808C838080020382621202083
:102E40001800000000FE020202000000007F404067
:102E50004000000C30C000000000000000010638F7
:102E6000C00000020202FE000000004040407F005F
:102E70000000000004020202040000000000000044
:102E80000000000000000000000080808080808042
:102E9000808000020204000000000000000000002A
:102EA000000000008080808000000019242222227F
:102EB0003F2008F8008080000000003F1120201112
:102EC0000E000000008080800000000E11202020F5
:102ED0001100000000808088F800000E11202010F2
:102EE0003F200000808080800000001F22222222DC
:102EF0001300008080F0888888180020203F202060
:102F000000000000808080808000006B9494949387
:102F1000600008F8008080800000203F2100002031
:102F20003F2000809898000000000020203F2020D3
:102F30000000000000809898000000C08080807F22
:102F4000000008F8000080808000203F24022D301F
:102F50002000000808F8000000000020203F20208A
:102F600000008080808080808000203F20003F2003
:102F7000003F8080008080800000203F21000020F2
:102F80003F200000808080800000001F2020202043
:102F90001F00808000808000000080FFA1202011A1
:102FA0000E000000008080808000000E112020A014
:102FB000FF80808080008080800020203F212000D2
:102FC00001000000808080808000003324242424BD
:102FD0001900008080E0808000000000001F202099
:102FE00000008080000000808000001F2020201052
:102FF0003F20808080000080808000010E30080625
:10300000010080800080008080800F300C030C3035
:103010000F0000808000808080000020312E0E3163
:103020002000808080000080808080818E70180663
:10303000010000808080808080000021302C2221CF
:10304000300000000000807C020200000000003F11
:10305000404000000000FF00000000000000FF00F2
:1030600000000002027C800000000040403F0000A1
:10307000000000060101020204040000000000003C
:103080000000000000001041000040400000A03F90
:10309000000000000000A0BF000040C0000010C100
:1030A000C03000080000002048000000C4010008F3
:1030B000083100084800002008080000E00100086E
:1030C00000000000010203040102030406070809CE
:1030D00000000000000000000000000001000000EF
:1030E00000000000010000000000000000000000DF
:1030F0000055AA138E5F55AA0A040055AA000000C5
:0831000055AA0A0100000000BD
:040000050800018965
:00000001FF
